{
  "_format": "hh-sol-artifact-1",
  "contractName": "VaultToCurve",
  "sourceName": "contracts/VaultToCurve.sol",
  "abi": [
    {
      "anonymous": false,
      "inputs": [
        {
          "indexed": true,
          "internalType": "address",
          "name": "previousOwner",
          "type": "address"
        },
        {
          "indexed": true,
          "internalType": "address",
          "name": "newOwner",
          "type": "address"
        }
      ],
      "name": "OwnershipTransferred",
      "type": "event"
    },
    {
      "inputs": [],
      "name": "balanceOfAll",
      "outputs": [
        {
          "internalType": "uint256",
          "name": "balances",
          "type": "uint256"
        }
      ],
      "stateMutability": "view",
      "type": "function"
    },
    {
      "inputs": [],
      "name": "curveFi_CRVMinter",
      "outputs": [
        {
          "internalType": "address",
          "name": "",
          "type": "address"
        }
      ],
      "stateMutability": "view",
      "type": "function"
    },
    {
      "inputs": [],
      "name": "curveFi_CRVToken",
      "outputs": [
        {
          "internalType": "address",
          "name": "",
          "type": "address"
        }
      ],
      "stateMutability": "view",
      "type": "function"
    },
    {
      "inputs": [],
      "name": "curveFi_Deposit",
      "outputs": [
        {
          "internalType": "address",
          "name": "",
          "type": "address"
        }
      ],
      "stateMutability": "view",
      "type": "function"
    },
    {
      "inputs": [],
      "name": "curveFi_LPGauge",
      "outputs": [
        {
          "internalType": "address",
          "name": "",
          "type": "address"
        }
      ],
      "stateMutability": "view",
      "type": "function"
    },
    {
      "inputs": [],
      "name": "curveFi_LPToken",
      "outputs": [
        {
          "internalType": "address",
          "name": "",
          "type": "address"
        }
      ],
      "stateMutability": "view",
      "type": "function"
    },
    {
      "inputs": [],
      "name": "curveFi_Swap",
      "outputs": [
        {
          "internalType": "address",
          "name": "",
          "type": "address"
        }
      ],
      "stateMutability": "view",
      "type": "function"
    },
    {
      "inputs": [],
      "name": "curveLPTokenBalance",
      "outputs": [
        {
          "internalType": "uint256",
          "name": "",
          "type": "uint256"
        }
      ],
      "stateMutability": "view",
      "type": "function"
    },
    {
      "inputs": [],
      "name": "curveLPTokenStaked",
      "outputs": [
        {
          "internalType": "uint256",
          "name": "",
          "type": "uint256"
        }
      ],
      "stateMutability": "view",
      "type": "function"
    },
    {
      "inputs": [],
      "name": "curveLPTokenUnstaked",
      "outputs": [
        {
          "internalType": "uint256",
          "name": "",
          "type": "uint256"
        }
      ],
      "stateMutability": "view",
      "type": "function"
    },
    {
      "inputs": [
        {
          "internalType": "uint256",
          "name": "underlyingAmount",
          "type": "uint256"
        }
      ],
      "name": "deposit",
      "outputs": [],
      "stateMutability": "nonpayable",
      "type": "function"
    },
    {
      "inputs": [],
      "name": "exchangeRate",
      "outputs": [
        {
          "internalType": "uint256",
          "name": "",
          "type": "uint256"
        }
      ],
      "stateMutability": "view",
      "type": "function"
    },
    {
      "inputs": [],
      "name": "exchange_rate_between_DAI_and_LPToken",
      "outputs": [
        {
          "internalType": "uint256",
          "name": "",
          "type": "uint256"
        }
      ],
      "stateMutability": "view",
      "type": "function"
    },
    {
      "inputs": [],
      "name": "harvest",
      "outputs": [],
      "stateMutability": "nonpayable",
      "type": "function"
    },
    {
      "inputs": [],
      "name": "normalizedBalance",
      "outputs": [
        {
          "internalType": "uint256",
          "name": "",
          "type": "uint256"
        }
      ],
      "stateMutability": "view",
      "type": "function"
    },
    {
      "inputs": [],
      "name": "owner",
      "outputs": [
        {
          "internalType": "address",
          "name": "",
          "type": "address"
        }
      ],
      "stateMutability": "view",
      "type": "function"
    },
    {
      "inputs": [],
      "name": "renounceOwnership",
      "outputs": [],
      "stateMutability": "nonpayable",
      "type": "function"
    },
    {
      "inputs": [
        {
          "internalType": "address",
          "name": "_depositContract",
          "type": "address"
        },
        {
          "internalType": "address",
          "name": "_gaugeContract",
          "type": "address"
        },
        {
          "internalType": "address",
          "name": "_minterContract",
          "type": "address"
        }
      ],
      "name": "setUp",
      "outputs": [],
      "stateMutability": "nonpayable",
      "type": "function"
    },
    {
      "inputs": [
        {
          "internalType": "address",
          "name": "newOwner",
          "type": "address"
        }
      ],
      "name": "transferOwnership",
      "outputs": [],
      "stateMutability": "nonpayable",
      "type": "function"
    },
    {
      "inputs": [
        {
          "internalType": "uint256",
          "name": "lpAmount",
          "type": "uint256"
        }
      ],
      "name": "withdraw",
      "outputs": [],
      "stateMutability": "nonpayable",
      "type": "function"
    }
  ],
  "bytecode": "0x608060405234801561001057600080fd5b5061001a3361001f565b610071565b603380546001600160a01b038381166001600160a01b0319831681179093556040519116919082907f8be0079c531659141344cd1fd0a4f28419497f9722a3daafe3b4186f6b6457e090600090a35050565b611cd8806100806000396000f3fe608060405234801561001057600080fd5b506004361061016c5760003560e01c80638141d266116100cd578063b6b55f2511610081578063dfda714a11610066578063dfda714a14610288578063e011262a14610290578063f2fde38b146102a357600080fd5b8063b6b55f2514610262578063be873f501461027557600080fd5b806397aa80d5116100b257806397aa80d51461023e5780639dc53dfc14610246578063a3477c361461024f57600080fd5b80638141d2661461021a5780638da5cb5b1461022d57600080fd5b80634641257d116101245780636812b16c116101095780636812b16c146101ec578063715018a6146101ff5780637c2411461461020757600080fd5b80634641257d146101dc578063628cb95e146101e457600080fd5b80632e1a7d4d116101555780632e1a7d4d146101b75780633ba0b9a9146101cc57806344f9c395146101d457600080fd5b80631c60041614610171578063208e509f146101a1575b600080fd5b603554610184906001600160a01b031681565b6040516001600160a01b0390911681526020015b60405180910390f35b6101a96102b6565b604051908152602001610198565b6101ca6101c5366004611991565b6105c5565b005b603a546101a9565b6101a961080b565b6101ca61087e565b6101a9610a14565b6101ca6101fa3660046119bf565b610ab3565b6101ca610e85565b603854610184906001600160a01b031681565b603954610184906001600160a01b031681565b6033546001600160a01b0316610184565b6101a9610eeb565b6101a9603a5481565b603654610184906001600160a01b031681565b6101ca610270366004611991565b610f15565b603454610184906001600160a01b031681565b6101a96111b6565b603754610184906001600160a01b031681565b6101ca6102b1366004611a0a565b6111e7565b600080603460009054906101000a90046001600160a01b03166001600160a01b031663fb6d3a896040518163ffffffff1660e01b8152600401602060405180830381865afa15801561030c573d6000803e3d6000fd5b505050506040513d601f19601f820116820180604052508101906103309190611a27565b9050600061033c610eeb565b90506000603660009054906101000a90046001600160a01b03166001600160a01b03166318160ddd6040518163ffffffff1660e01b8152600401602060405180830381865afa158015610393573d6000803e3d6000fd5b505050506040513d601f19601f820116820180604052508101906103b79190611a44565b90506000811161040e5760405162461bcd60e51b815260206004820152601960248201527f4e6f204375727665204c5020746f6b656e73206d696e7465640000000000000060448201526064015b60405180910390fd5b6035546040517f27e235e30000000000000000000000000000000000000000000000000000000081526001600160a01b03858116600483015260009216906327e235e390602401602060405180830381865afa158015610472573d6000803e3d6000fd5b505050506040513d601f19601f820116820180604052508101906104969190611a44565b6035546040517f7d0f7a880000000000000000000000000000000000000000000000000000000081526001600160a01b03878116600483015292935060009290911690637d0f7a8890602401602060405180830381865afa1580156104ff573d6000803e3d6000fd5b505050506040513d601f19601f820116820180604052508101906105239190611a27565b9050600061053b8461053585886112c9565b906112de565b90506000826001600160a01b03166377c7b8fc6040518163ffffffff1660e01b8152600401602060405180830381865afa15801561057d573d6000803e3d6000fd5b505050506040513d601f19601f820116820180604052508101906105a19190611a44565b90506105b9670de0b6b3a764000061053583856112c9565b97505050505050505090565b6034546040805163fb6d3a8960e01b815290516000926001600160a01b03169163fb6d3a899160048083019260209291908290030181865afa15801561060f573d6000803e3d6000fd5b505050506040513d601f19601f820116820180604052508101906106339190611a27565b9050600061064b61064483856112ea565b82906113cd565b90506000610658826113d9565b6037546040517f2e1a7d4d000000000000000000000000000000000000000000000000000000008152600481018390529192506001600160a01b031690632e1a7d4d90602401600060405180830381600087803b1580156106b857600080fd5b505af11580156106cc573d6000803e3d6000fd5b50506034546036546106ed93506001600160a01b0390811692501683611400565b6034546040517fab7a17d600000000000000000000000000000000000000000000000000000000815260048101869052602481018390526001600160a01b039091169063ab7a17d690604401600060405180830381600087803b15801561075357600080fd5b505af1158015610767573d6000803e3d6000fd5b50506040516370a0823160e01b8152306004820152859250600091506001600160a01b038316906370a0823190602401602060405180830381865afa1580156107b4573d6000803e3d6000fd5b505050506040513d601f19601f820116820180604052508101906107d89190611a44565b90506000868211156107ea57866107ec565b815b90506108026001600160a01b03841633836115b3565b50505050505050565b6037546040516370a0823160e01b81523060048201526000916001600160a01b0316906370a08231906024015b602060405180830381865afa158015610855573d6000803e3d6000fd5b505050506040513d601f19601f820116820180604052508101906108799190611a44565b905090565b6036546040516370a0823160e01b81523060048201526000916001600160a01b0316906370a0823190602401602060405180830381865afa1580156108c7573d6000803e3d6000fd5b505050506040513d601f19601f820116820180604052508101906108eb9190611a44565b60375460365491925061090b916001600160a01b03908116911683611400565b6037546040517fb6b55f25000000000000000000000000000000000000000000000000000000008152600481018390526001600160a01b039091169063b6b55f2590602401600060405180830381600087803b15801561096a57600080fd5b505af115801561097e573d6000803e3d6000fd5b5050505061098a6115fc565b6039546040516370a0823160e01b81523060048201526000916001600160a01b0316906370a0823190602401602060405180830381865afa1580156109d3573d6000803e3d6000fd5b505050506040513d601f19601f820116820180604052508101906109f79190611a44565b9050610a10336039546001600160a01b031690836115b3565b5050565b600080603460009054906101000a90046001600160a01b03166001600160a01b031663fb6d3a896040518163ffffffff1660e01b8152600401602060405180830381865afa158015610a6a573d6000803e3d6000fd5b505050506040513d601f19601f82011682018060405250810190610a8e9190611a27565b90506000610a9a6102b6565b90506000610aab61064484846112ea565b949350505050565b6033546001600160a01b03163314610b0d5760405162461bcd60e51b815260206004820181905260248201527f4f776e61626c653a2063616c6c6572206973206e6f7420746865206f776e65726044820152606401610405565b6001600160a01b038316610b895760405162461bcd60e51b815260206004820152602260248201527f496e636f7272656374206465706f73697420636f6e747261637420616464726560448201527f73730000000000000000000000000000000000000000000000000000000000006064820152608401610405565b603480546001600160a01b0319166001600160a01b038516908117909155604080517f7165485d0000000000000000000000000000000000000000000000000000000081529051637165485d916004808201926020929091908290030181865afa158015610bfb573d6000803e3d6000fd5b505050506040513d601f19601f82011682018060405250810190610c1f9190611a27565b603580546001600160a01b03199081166001600160a01b039384161790915560378054909116848316179055603454604080517ffc0c546a0000000000000000000000000000000000000000000000000000000081529051919092169163fc0c546a9160048083019260209291908290030181865afa158015610ca6573d6000803e3d6000fd5b505050506040513d601f19601f82011682018060405250810190610cca9190611a27565b603680546001600160a01b0319166001600160a01b03928316908117909155603754604080517f82c630660000000000000000000000000000000000000000000000000000000081529051929391909116916382c63066916004808201926020929091908290030181865afa158015610d47573d6000803e3d6000fd5b505050506040513d601f19601f82011682018060405250810190610d6b9190611a27565b6001600160a01b031614610dc15760405162461bcd60e51b815260206004820152601e60248201527f43757276654669204c5020746f6b656e7320646f206e6f74206d6174636800006044820152606401610405565b603880546001600160a01b0319166001600160a01b0383811691909117909155603754604080517f76d8b117000000000000000000000000000000000000000000000000000000008152905191909216916376d8b1179160048083019260209291908290030181865afa158015610e3c573d6000803e3d6000fd5b505050506040513d601f19601f82011682018060405250810190610e609190611a27565b603980546001600160a01b0319166001600160a01b0392909216919091179055505050565b6033546001600160a01b03163314610edf5760405162461bcd60e51b815260206004820181905260248201527f4f776e61626c653a2063616c6c6572206973206e6f7420746865206f776e65726044820152606401610405565b610ee96000611678565b565b600080610ef661080b565b90506000610f026111b6565b9050610f0e81836113cd565b9250505090565b6034546040805163fb6d3a8960e01b815290516000926001600160a01b03169163fb6d3a899160048083019260209291908290030181865afa158015610f5f573d6000803e3d6000fd5b505050506040513d601f19601f82011682018060405250810190610f839190611a27565b9050816001600160a01b0382166370a08231336040517fffffffff0000000000000000000000000000000000000000000000000000000060e084901b1681526001600160a01b039091166004820152602401602060405180830381865afa158015610ff2573d6000803e3d6000fd5b505050506040513d601f19601f820116820180604052508101906110169190611a44565b10156110645760405162461bcd60e51b815260206004820152600c60248201527f436861726765206d6f72652e00000000000000000000000000000000000000006044820152606401610405565b6110796001600160a01b0382163330856116ca565b603454611093906001600160a01b03838116911684611400565b6034546040517fc4adc97b00000000000000000000000000000000000000000000000000000000815260048101849052600060248201526001600160a01b039091169063c4adc97b90604401600060405180830381600087803b1580156110f957600080fd5b505af115801561110d573d6000803e3d6000fd5b50506036546040516370a0823160e01b8152306004820152600093506001600160a01b0390911691506370a0823190602401602060405180830381865afa15801561115c573d6000803e3d6000fd5b505050506040513d601f19601f820116820180604052508101906111809190611a44565b9050611199336036546001600160a01b031690836115b3565b6111ae60646111a885846112de565b906112c9565b603a55505050565b6036546040516370a0823160e01b81523060048201526000916001600160a01b0316906370a0823190602401610838565b6033546001600160a01b031633146112415760405162461bcd60e51b815260206004820181905260248201527f4f776e61626c653a2063616c6c6572206973206e6f7420746865206f776e65726044820152606401610405565b6001600160a01b0381166112bd5760405162461bcd60e51b815260206004820152602660248201527f4f776e61626c653a206e6577206f776e657220697320746865207a65726f206160448201527f64647265737300000000000000000000000000000000000000000000000000006064820152608401610405565b6112c681611678565b50565b60006112d58284611a73565b90505b92915050565b60006112d58284611a92565b600080836001600160a01b031663313ce5676040518163ffffffff1660e01b8152600401602060405180830381865afa15801561132b573d6000803e3d6000fd5b505050506040513d601f19601f8201168201806040525081019061134f9190611ab4565b90508060ff166012141561136657829150506112d8565b60128160ff16111561139a57611392611380601283611ad7565b61138b90600a611bde565b84906112de565b9150506112d8565b60128160ff1610156113c6576113926113b4826012611ad7565b6113bf90600a611bde565b84906112c9565b5092915050565b60006112d58284611bed565b6000806113e4610a14565b905060006113f0610eeb565b9050610aab8261053583876112c9565b80158061149357506040517fdd62ed3e0000000000000000000000000000000000000000000000000000000081523060048201526001600160a01b03838116602483015284169063dd62ed3e90604401602060405180830381865afa15801561146d573d6000803e3d6000fd5b505050506040513d601f19601f820116820180604052508101906114919190611a44565b155b6115055760405162461bcd60e51b815260206004820152603660248201527f5361666545524332303a20617070726f76652066726f6d206e6f6e2d7a65726f60448201527f20746f206e6f6e2d7a65726f20616c6c6f77616e6365000000000000000000006064820152608401610405565b6040516001600160a01b0383166024820152604481018290526115ae9084907f095ea7b300000000000000000000000000000000000000000000000000000000906064015b60408051601f198184030181529190526020810180517bffffffffffffffffffffffffffffffffffffffffffffffffffffffff167fffffffff000000000000000000000000000000000000000000000000000000009093169290921790915261171b565b505050565b6040516001600160a01b0383166024820152604481018290526115ae9084907fa9059cbb000000000000000000000000000000000000000000000000000000009060640161154a565b6038546037546040517f6a6278420000000000000000000000000000000000000000000000000000000081526001600160a01b039182166004820152911690636a62784290602401600060405180830381600087803b15801561165e57600080fd5b505af1158015611672573d6000803e3d6000fd5b50505050565b603380546001600160a01b038381166001600160a01b0319831681179093556040519116919082907f8be0079c531659141344cd1fd0a4f28419497f9722a3daafe3b4186f6b6457e090600090a35050565b6040516001600160a01b03808516602483015283166044820152606481018290526116729085907f23b872dd000000000000000000000000000000000000000000000000000000009060840161154a565b6000611770826040518060400160405280602081526020017f5361666545524332303a206c6f772d6c6576656c2063616c6c206661696c6564815250856001600160a01b03166118009092919063ffffffff16565b8051909150156115ae578080602001905181019061178e9190611c05565b6115ae5760405162461bcd60e51b815260206004820152602a60248201527f5361666545524332303a204552433230206f7065726174696f6e20646964206e60448201527f6f742073756363656564000000000000000000000000000000000000000000006064820152608401610405565b606061180f8484600085611819565b90505b9392505050565b6060824710156118915760405162461bcd60e51b815260206004820152602660248201527f416464726573733a20696e73756666696369656e742062616c616e636520666f60448201527f722063616c6c00000000000000000000000000000000000000000000000000006064820152608401610405565b843b6118df5760405162461bcd60e51b815260206004820152601d60248201527f416464726573733a2063616c6c20746f206e6f6e2d636f6e74726163740000006044820152606401610405565b600080866001600160a01b031685876040516118fb9190611c53565b60006040518083038185875af1925050503d8060008114611938576040519150601f19603f3d011682016040523d82523d6000602084013e61193d565b606091505b509150915061194d828286611958565b979650505050505050565b60608315611967575081611812565b8251156119775782518084602001fd5b8160405162461bcd60e51b81526004016104059190611c6f565b6000602082840312156119a357600080fd5b5035919050565b6001600160a01b03811681146112c657600080fd5b6000806000606084860312156119d457600080fd5b83356119df816119aa565b925060208401356119ef816119aa565b915060408401356119ff816119aa565b809150509250925092565b600060208284031215611a1c57600080fd5b8135611812816119aa565b600060208284031215611a3957600080fd5b8151611812816119aa565b600060208284031215611a5657600080fd5b5051919050565b634e487b7160e01b600052601160045260246000fd5b6000816000190483118215151615611a8d57611a8d611a5d565b500290565b600082611aaf57634e487b7160e01b600052601260045260246000fd5b500490565b600060208284031215611ac657600080fd5b815160ff8116811461181257600080fd5b600060ff821660ff841680821015611af157611af1611a5d565b90039392505050565b600181815b80851115611b35578160001904821115611b1b57611b1b611a5d565b80851615611b2857918102915b93841c9390800290611aff565b509250929050565b600082611b4c575060016112d8565b81611b59575060006112d8565b8160018114611b6f5760028114611b7957611b95565b60019150506112d8565b60ff841115611b8a57611b8a611a5d565b50506001821b6112d8565b5060208310610133831016604e8410600b8410161715611bb8575081810a6112d8565b611bc28383611afa565b8060001904821115611bd657611bd6611a5d565b029392505050565b60006112d560ff841683611b3d565b60008219821115611c0057611c00611a5d565b500190565b600060208284031215611c1757600080fd5b8151801515811461181257600080fd5b60005b83811015611c42578181015183820152602001611c2a565b838111156116725750506000910152565b60008251611c65818460208701611c27565b9190910192915050565b6020815260008251806020840152611c8e816040850160208701611c27565b601f01601f1916919091016040019291505056fea26469706673582212206617d3bee3e73112bd40fd38f3758f6db352b438ac4b0de8e1f5925d9cdc40ae64736f6c634300080a0033",
  "linkReferences": {},
  "deployedLinkReferences": {}
}